{
  "contractName": "Fountain",
  "abi": [
    {
      "inputs": [],
      "stateMutability": "nonpayable",
      "type": "constructor"
    },
    {
      "anonymous": false,
      "inputs": [
        {
          "indexed": true,
          "internalType": "uint256",
          "name": "id",
          "type": "uint256"
        },
        {
          "indexed": true,
          "internalType": "address",
          "name": "by",
          "type": "address"
        },
        {
          "indexed": false,
          "internalType": "uint256",
          "name": "sustainabilityTarget",
          "type": "uint256"
        },
        {
          "indexed": false,
          "internalType": "uint256",
          "name": "duration",
          "type": "uint256"
        },
        {
          "indexed": false,
          "internalType": "contract IERC20",
          "name": "want",
          "type": "address"
        }
      ],
      "name": "PurposeCreated",
      "type": "event"
    },
    {
      "anonymous": false,
      "inputs": [
        {
          "indexed": true,
          "internalType": "uint256",
          "name": "id",
          "type": "uint256"
        },
        {
          "indexed": true,
          "internalType": "address",
          "name": "sustainer",
          "type": "address"
        },
        {
          "indexed": false,
          "internalType": "uint256",
          "name": "amount",
          "type": "uint256"
        }
      ],
      "name": "PurposeSustained",
      "type": "event"
    },
    {
      "anonymous": false,
      "inputs": [
        {
          "indexed": true,
          "internalType": "address",
          "name": "by",
          "type": "address"
        },
        {
          "indexed": true,
          "internalType": "enum Fountain.Pool",
          "name": "from",
          "type": "uint8"
        },
        {
          "indexed": false,
          "internalType": "uint256",
          "name": "amount",
          "type": "uint256"
        }
      ],
      "name": "Withdrawn",
      "type": "event"
    },
    {
      "inputs": [],
      "name": "DAI",
      "outputs": [
        {
          "internalType": "contract IERC20",
          "name": "",
          "type": "address"
        }
      ],
      "stateMutability": "view",
      "type": "function"
    },
    {
      "inputs": [
        {
          "internalType": "address",
          "name": "",
          "type": "address"
        }
      ],
      "name": "latestPurposeIds",
      "outputs": [
        {
          "internalType": "uint256",
          "name": "",
          "type": "uint256"
        }
      ],
      "stateMutability": "view",
      "type": "function"
    },
    {
      "inputs": [
        {
          "internalType": "uint256",
          "name": "",
          "type": "uint256"
        }
      ],
      "name": "purposes",
      "outputs": [
        {
          "internalType": "uint256",
          "name": "id",
          "type": "uint256"
        },
        {
          "internalType": "address",
          "name": "who",
          "type": "address"
        },
        {
          "internalType": "contract IERC20",
          "name": "want",
          "type": "address"
        },
        {
          "internalType": "uint256",
          "name": "sustainabilityTarget",
          "type": "uint256"
        },
        {
          "internalType": "uint256",
          "name": "currentSustainment",
          "type": "uint256"
        },
        {
          "internalType": "uint256",
          "name": "start",
          "type": "uint256"
        },
        {
          "internalType": "uint256",
          "name": "duration",
          "type": "uint256"
        },
        {
          "internalType": "bool",
          "name": "exists",
          "type": "bool"
        },
        {
          "internalType": "uint256",
          "name": "previousPurposeId",
          "type": "uint256"
        },
        {
          "internalType": "bool",
          "name": "redistributed",
          "type": "bool"
        }
      ],
      "stateMutability": "view",
      "type": "function"
    },
    {
      "inputs": [
        {
          "internalType": "uint256",
          "name": "t",
          "type": "uint256"
        },
        {
          "internalType": "uint256",
          "name": "d",
          "type": "uint256"
        }
      ],
      "name": "createPurpose",
      "outputs": [],
      "stateMutability": "nonpayable",
      "type": "function"
    },
    {
      "inputs": [
        {
          "internalType": "address",
          "name": "w",
          "type": "address"
        },
        {
          "internalType": "uint256",
          "name": "a",
          "type": "uint256"
        }
      ],
      "name": "sustain",
      "outputs": [],
      "stateMutability": "nonpayable",
      "type": "function"
    },
    {
      "inputs": [
        {
          "internalType": "uint256",
          "name": "a",
          "type": "uint256"
        }
      ],
      "name": "withdrawFromRedistributionPool",
      "outputs": [],
      "stateMutability": "nonpayable",
      "type": "function"
    },
    {
      "inputs": [
        {
          "internalType": "uint256",
          "name": "a",
          "type": "uint256"
        }
      ],
      "name": "withdrawFromSustainabilityPool",
      "outputs": [],
      "stateMutability": "nonpayable",
      "type": "function"
    },
    {
      "inputs": [
        {
          "internalType": "uint256",
          "name": "t",
          "type": "uint256"
        },
        {
          "internalType": "uint256",
          "name": "d",
          "type": "uint256"
        }
      ],
      "name": "updatePurpose",
      "outputs": [],
      "stateMutability": "nonpayable",
      "type": "function"
    }
  ],
  "bytecode": "0x608060405234801561001057600080fd5b50736b175474e89094c44da98b954eedeac495271d0f600560006101000a81548173ffffffffffffffffffffffffffffffffffffffff021916908373ffffffffffffffffffffffffffffffffffffffff1602179055506000600481905550612ad58061007d6000396000f3fe608060405234801561001057600080fd5b50600436106100885760003560e01c80639e7ad5501161005b5780639e7ad55014610179578063d70bae11146101a7578063e0bab4c4146101ff578063efd6734b1461024957610088565b8063166a3b541461008d5780633544a9cf146100c55780635b237f76146100f35780639a3c38ea1461012b575b600080fd5b6100c3600480360360408110156100a357600080fd5b81019080803590602001909291908035906020019092919050505061032a565b005b6100f1600480360360208110156100db57600080fd5b8101908080359060200190929190505050610665565b005b6101296004803603604081101561010957600080fd5b810190808035906020019092919080359060200190929190505050610847565b005b6101776004803603604081101561014157600080fd5b81019080803573ffffffffffffffffffffffffffffffffffffffff16906020019092919080359060200190929190505050610904565b005b6101a56004803603602081101561018f57600080fd5b8101908080359060200190929190505050610dce565b005b6101e9600480360360208110156101bd57600080fd5b81019080803573ffffffffffffffffffffffffffffffffffffffff169060200190929190505050610fa7565b6040518082815260200191505060405180910390f35b610207610fbf565b604051808273ffffffffffffffffffffffffffffffffffffffff1673ffffffffffffffffffffffffffffffffffffffff16815260200191505060405180910390f35b6102756004803603602081101561025f57600080fd5b8101908080359060200190929190505050610fe5565b604051808b81526020018a73ffffffffffffffffffffffffffffffffffffffff1673ffffffffffffffffffffffffffffffffffffffff1681526020018973ffffffffffffffffffffffffffffffffffffffff1673ffffffffffffffffffffffffffffffffffffffff16815260200188815260200187815260200186815260200185815260200184151515158152602001838152602001821515151581526020019a505050505050505050505060405180910390f35b6000600160003373ffffffffffffffffffffffffffffffffffffffff1673ffffffffffffffffffffffffffffffffffffffff16815260200190815260200160002054146103c2576040517f08c379a000000000000000000000000000000000000000000000000000000000815260040180806020018281038252604d8152602001806127f5604d913960600191505060405180910390fd5b600181101561041c576040517f08c379a0000000000000000000000000000000000000000000000000000000008152600401808060200182810382526040815260200180612a326040913960400191505060405180910390fd5b610432600160045461109390919063ffffffff16565b506000806000600454815260200190815260200160002090506004548160000181905550338160010160006101000a81548173ffffffffffffffffffffffffffffffffffffffff021916908373ffffffffffffffffffffffffffffffffffffffff16021790555082816003018190555060008160040181905550428160050181905550818160060181905550600560009054906101000a900473ffffffffffffffffffffffffffffffffffffffff168160020160006101000a81548173ffffffffffffffffffffffffffffffffffffffff021916908373ffffffffffffffffffffffffffffffffffffffff16021790555060018160070160006101000a81548160ff0219169083151502179055506000816008018190555060008160090160006101000a81548160ff0219169083151502179055508060000154600160003373ffffffffffffffffffffffffffffffffffffffff1673ffffffffffffffffffffffffffffffffffffffff168152602001908152602001600020819055503373ffffffffffffffffffffffffffffffffffffffff1681600001547fadb2745991648d3e4eab2ec3abe0aefdf92b5f214e1f2915a02984ccd24053ca8585600560009054906101000a900473ffffffffffffffffffffffffffffffffffffffff16604051808481526020018381526020018273ffffffffffffffffffffffffffffffffffffffff1673ffffffffffffffffffffffffffffffffffffffff168152602001935050505060405180910390a3505050565b61066e3361111b565b80600360003373ffffffffffffffffffffffffffffffffffffffff1673ffffffffffffffffffffffffffffffffffffffff168152602001908152602001600020541015610706576040517f08c379a000000000000000000000000000000000000000000000000000000000815260040180806020018281038252603781526020018061294e6037913960400191505060405180910390fd5b610755303383600560009054906101000a900473ffffffffffffffffffffffffffffffffffffffff1673ffffffffffffffffffffffffffffffffffffffff16611398909392919063ffffffff16565b6107a781600360003373ffffffffffffffffffffffffffffffffffffffff1673ffffffffffffffffffffffffffffffffffffffff1681526020019081526020016000205461148590919063ffffffff16565b600360003373ffffffffffffffffffffffffffffffffffffffff1673ffffffffffffffffffffffffffffffffffffffff168152602001908152602001600020819055506001808111156107f657fe5b3373ffffffffffffffffffffffffffffffffffffffff167f83637d0d125e3dae88720b1ad229ce05c339c065b6282caf315dcb35a999d6d4836040518082815260200191505060405180910390a350565b6108503361111b565b600061085b336114cf565b9050600080600083815260200190815260200160002090506000841115610886578381600301819055505b6000831115610899578281600601819055505b600560009054906101000a900473ffffffffffffffffffffffffffffffffffffffff168160020160006101000a81548173ffffffffffffffffffffffffffffffffffffffff021916908373ffffffffffffffffffffffffffffffffffffffff16021790555050505050565b6000811161095d576040517f08c379a000000000000000000000000000000000000000000000000000000000815260040180806020018281038252603c815260200180612985603c913960400191505060405180910390fd5b6109668261111b565b600061097183611755565b9050600080600083815260200190815260200160002090508060070160009054906101000a900460ff166109f0576040517f08c379a0000000000000000000000000000000000000000000000000000000008152600401808060200182810382526024815260200180612a0e6024913960400191505060405180910390fd5b60008160030154610a0e85846004015461109390919063ffffffff16565b1115610a4c57816003015482600401541015610a4457610a3f8260040154836003015461148590919063ffffffff16565b610a47565b60005b610a4e565b835b905060008083600b0160003373ffffffffffffffffffffffffffffffffffffffff1673ffffffffffffffffffffffffffffffffffffffff16815260200190815260200160002054149050600560009054906101000a900473ffffffffffffffffffffffffffffffffffffffff1673ffffffffffffffffffffffffffffffffffffffff166323b872dd3330886040518463ffffffff1660e01b8152600401808473ffffffffffffffffffffffffffffffffffffffff1673ffffffffffffffffffffffffffffffffffffffff1681526020018373ffffffffffffffffffffffffffffffffffffffff1673ffffffffffffffffffffffffffffffffffffffff1681526020018281526020019350505050602060405180830381600087803b158015610b7557600080fd5b505af1158015610b89573d6000803e3d6000fd5b505050506040513d6020811015610b9f57600080fd5b810190808051906020019092919050505050610c0382600360008973ffffffffffffffffffffffffffffffffffffffff1673ffffffffffffffffffffffffffffffffffffffff1681526020019081526020016000205461109390919063ffffffff16565b600360008873ffffffffffffffffffffffffffffffffffffffff1673ffffffffffffffffffffffffffffffffffffffff16815260200190815260200160002081905550610c9a8584600b0160003373ffffffffffffffffffffffffffffffffffffffff1673ffffffffffffffffffffffffffffffffffffffff1681526020019081526020016000205461109390919063ffffffff16565b83600b0160003373ffffffffffffffffffffffffffffffffffffffff1673ffffffffffffffffffffffffffffffffffffffff16815260200190815260200160002081905550610cf685846004015461109390919063ffffffff16565b83600401819055508015610d6a5782600a01339080600181540180825580915050600190039060005260206000200160009091909190916101000a81548173ffffffffffffffffffffffffffffffffffffffff021916908373ffffffffffffffffffffffffffffffffffffffff1602179055505b610d73836119b8565b3373ffffffffffffffffffffffffffffffffffffffff1683600001547f3eba3883b2bc48775c7add9b4cee401e78b19b3d78bd9d1f20365bae4f811167876040518082815260200191505060405180910390a3505050505050565b80600260003373ffffffffffffffffffffffffffffffffffffffff1673ffffffffffffffffffffffffffffffffffffffff168152602001908152602001600020541015610e66576040517f08c379a000000000000000000000000000000000000000000000000000000000815260040180806020018281038252603781526020018061294e6037913960400191505060405180910390fd5b610eb5303383600560009054906101000a900473ffffffffffffffffffffffffffffffffffffffff1673ffffffffffffffffffffffffffffffffffffffff16611398909392919063ffffffff16565b610f0781600260003373ffffffffffffffffffffffffffffffffffffffff1673ffffffffffffffffffffffffffffffffffffffff1681526020019081526020016000205461148590919063ffffffff16565b600260003373ffffffffffffffffffffffffffffffffffffffff1673ffffffffffffffffffffffffffffffffffffffff16815260200190815260200160002081905550600180811115610f5657fe5b3373ffffffffffffffffffffffffffffffffffffffff167f83637d0d125e3dae88720b1ad229ce05c339c065b6282caf315dcb35a999d6d4836040518082815260200191505060405180910390a350565b60016020528060005260406000206000915090505481565b600560009054906101000a900473ffffffffffffffffffffffffffffffffffffffff1681565b60006020528060005260406000206000915090508060000154908060010160009054906101000a900473ffffffffffffffffffffffffffffffffffffffff16908060020160009054906101000a900473ffffffffffffffffffffffffffffffffffffffff16908060030154908060040154908060050154908060060154908060070160009054906101000a900460ff16908060080154908060090160009054906101000a900460ff1690508a565b600080828401905083811015611111576040517f08c379a000000000000000000000000000000000000000000000000000000000815260040180806020018281038252601b8152602001807f536166654d6174683a206164646974696f6e206f766572666c6f77000000000081525060200191505060405180910390fd5b8091505092915050565b6000600160008373ffffffffffffffffffffffffffffffffffffffff1673ffffffffffffffffffffffffffffffffffffffff168152602001908152602001600020549050600081116111b8576040517f08c379a00000000000000000000000000000000000000000000000000000000081526004018080602001828103825260308152602001806128a16030913960400191505060405180910390fd5b600080600083815260200190815260200160002090505b6000821180156111ee57508060090160009054906101000a900460ff16155b15611393576002808111156111ff57fe5b61120c8260000154611b0d565b600281111561121757fe5b14156113735760008090505b81600a018054905081101561135457600082600a01828154811061124357fe5b9060005260206000200160009054906101000a900473ffffffffffffffffffffffffffffffffffffffff16905061130383600c0160008373ffffffffffffffffffffffffffffffffffffffff1673ffffffffffffffffffffffffffffffffffffffff16815260200190815260200160002054600260008473ffffffffffffffffffffffffffffffffffffffff1673ffffffffffffffffffffffffffffffffffffffff1681526020019081526020016000205461109390919063ffffffff16565b600260008373ffffffffffffffffffffffffffffffffffffffff1673ffffffffffffffffffffffffffffffffffffffff16815260200190815260200160002081905550508080600101915050611223565b5060018160090160006101000a81548160ff0219169083151502179055505b8060080154915060008083815260200190815260200160002090506111cf565b505050565b61147f846323b872dd60e01b858585604051602401808473ffffffffffffffffffffffffffffffffffffffff1673ffffffffffffffffffffffffffffffffffffffff1681526020018373ffffffffffffffffffffffffffffffffffffffff1673ffffffffffffffffffffffffffffffffffffffff1681526020018281526020019350505050604051602081830303815290604052907bffffffffffffffffffffffffffffffffffffffffffffffffffffffff19166020820180517bffffffffffffffffffffffffffffffffffffffffffffffffffffffff8381831617835250505050611c5d565b50505050565b60006114c783836040518060400160405280601e81526020017f536166654d6174683a207375627472616374696f6e206f766572666c6f770000815250611d4c565b905092915050565b6000806114db83611e0c565b9050600081141580156115035750600080600083815260200190815260200160002060040154145b156115115780915050611750565b61151a83611f9b565b90506000811461152d5780915050611750565b61153683612073565b905060006115438261211a565b90508060008083600001548152602001908152602001600020600082015481600001556001820160009054906101000a900473ffffffffffffffffffffffffffffffffffffffff168160010160006101000a81548173ffffffffffffffffffffffffffffffffffffffff021916908373ffffffffffffffffffffffffffffffffffffffff1602179055506002820160009054906101000a900473ffffffffffffffffffffffffffffffffffffffff168160020160006101000a81548173ffffffffffffffffffffffffffffffffffffffff021916908373ffffffffffffffffffffffffffffffffffffffff160217905550600382015481600301556004820154816004015560058201548160050155600682015481600601556007820160009054906101000a900460ff168160070160006101000a81548160ff021916908315150217905550600882015481600801556009820160009054906101000a900460ff168160090160006101000a81548160ff021916908315150217905550600a820181600a019080546116d692919061275f565b509050508060000154600160008360010160009054906101000a900473ffffffffffffffffffffffffffffffffffffffff1673ffffffffffffffffffffffffffffffffffffffff1673ffffffffffffffffffffffffffffffffffffffff168152602001908152602001600020819055508060000154925050505b919050565b60008061176183611e0c565b90506000811461177457809150506119b3565b61177d83611f9b565b90506000811461179057809150506119b3565b61179983612073565b905060006117a68261211a565b90508060008083600001548152602001908152602001600020600082015481600001556001820160009054906101000a900473ffffffffffffffffffffffffffffffffffffffff168160010160006101000a81548173ffffffffffffffffffffffffffffffffffffffff021916908373ffffffffffffffffffffffffffffffffffffffff1602179055506002820160009054906101000a900473ffffffffffffffffffffffffffffffffffffffff168160020160006101000a81548173ffffffffffffffffffffffffffffffffffffffff021916908373ffffffffffffffffffffffffffffffffffffffff160217905550600382015481600301556004820154816004015560058201548160050155600682015481600601556007820160009054906101000a900460ff168160070160006101000a81548160ff021916908315150217905550600882015481600801556009820160009054906101000a900460ff168160090160006101000a81548160ff021916908315150217905550600a820181600a0190805461193992919061275f565b509050508060000154600160008360010160009054906101000a900473ffffffffffffffffffffffffffffffffffffffff1673ffffffffffffffffffffffffffffffffffffffff1673ffffffffffffffffffffffffffffffffffffffff168152602001908152602001600020819055508060000154925050505b919050565b80600401548160030154106119cc57611b0a565b60006119e98260040154836003015461148590919063ffffffff16565b905060008090505b82600a0180549050811015611b0757600083600a018281548110611a1157fe5b9060005260206000200160009054906101000a900473ffffffffffffffffffffffffffffffffffffffff1690506000611a98856004015486600b0160008573ffffffffffffffffffffffffffffffffffffffff1673ffffffffffffffffffffffffffffffffffffffff1681526020019081526020016000205461234d90919063ffffffff16565b90506000611aaf828661239790919063ffffffff16565b90508086600c0160008573ffffffffffffffffffffffffffffffffffffffff1673ffffffffffffffffffffffffffffffffffffffff1681526020019081526020016000208190555050505080806001019150506119f1565b50505b50565b60008160045410158015611b215750600082115b611b76576040517f08c379a00000000000000000000000000000000000000000000000000000000081526004018080602001828103825260238152602001806129c16023913960400191505060405180910390fd5b600080600084815260200190815260200160002090508060070160009054906101000a900460ff16611c10576040517f08c379a00000000000000000000000000000000000000000000000000000000081526004018080602001828103825260208152602001807f466f756e7461696e3a3a73746174653a20496e76616c696420707572706f736581525060200191505060405180910390fd5b611c198161241d565b15611c28576002915050611c58565b611c3181612458565b8015611c435750611c418161241d565b155b15611c52576001915050611c58565b60009150505b919050565b6060611cbf826040518060400160405280602081526020017f5361666545524332303a206c6f772d6c6576656c2063616c6c206661696c65648152508573ffffffffffffffffffffffffffffffffffffffff166124689092919063ffffffff16565b9050600081511115611d4757808060200190516020811015611ce057600080fd5b8101908080519060200190929190505050611d46576040517f08c379a000000000000000000000000000000000000000000000000000000000815260040180806020018281038252602a8152602001806129e4602a913960400191505060405180910390fd5b5b505050565b6000838311158290611df9576040517f08c379a00000000000000000000000000000000000000000000000000000000081526004018080602001828103825283818151815260200191508051906020019080838360005b83811015611dbe578082015181840152602081019050611da3565b50505050905090810190601f168015611deb5780820380516001836020036101000a031916815260200191505b509250505060405180910390fd5b5060008385039050809150509392505050565b600080600160008473ffffffffffffffffffffffffffffffffffffffff1673ffffffffffffffffffffffffffffffffffffffff16815260200190815260200160002054905060008111611eaa576040517f08c379a000000000000000000000000000000000000000000000000000000000815260040180806020018281038252602f815260200180612842602f913960400191505060405180910390fd5b60016002811115611eb757fe5b611ec082611b0d565b6002811115611ecb57fe5b1415611eda5780915050611f96565b600080600083815260200190815260200160002090508060070160009054906101000a900460ff16611f57576040517f08c379a000000000000000000000000000000000000000000000000000000000815260040180806020018281038252602d8152602001806128f2602d913960400191505060405180910390fd5b8060080154915060016002811115611f6b57fe5b611f7483611b0d565b6002811115611f7f57fe5b1415611f8f578192505050611f96565b6000925050505b919050565b600080600160008473ffffffffffffffffffffffffffffffffffffffff1673ffffffffffffffffffffffffffffffffffffffff16815260200190815260200160002054905060008111612039576040517f08c379a00000000000000000000000000000000000000000000000000000000081526004018080602001828103825260308152602001806128716030913960400191505060405180910390fd5b6000600281111561204657fe5b61204f82611b0d565b600281111561205a57fe5b1461206957600091505061206e565b809150505b919050565b600080600160008473ffffffffffffffffffffffffffffffffffffffff1673ffffffffffffffffffffffffffffffffffffffff16815260200190815260200160002054905060008111612111576040517f08c379a000000000000000000000000000000000000000000000000000000000815260040180806020018281038252602f81526020018061291f602f913960400191505060405180910390fd5b80915050919050565b60008060008084815260200190815260200160002090508060070160009054906101000a900460ff16612198576040517f08c379a000000000000000000000000000000000000000000000000000000000815260040180806020018281038252602e815260200180612a72602e913960400191505060405180910390fd5b6121ae600160045461109390919063ffffffff16565b5060008060006004548152602001908152602001600020905060045481600001819055508160010160009054906101000a900473ffffffffffffffffffffffffffffffffffffffff168160010160006101000a81548173ffffffffffffffffffffffffffffffffffffffff021916908373ffffffffffffffffffffffffffffffffffffffff160217905550816003015481600301819055506000816004018190555061228061226d62015180846006015461239790919063ffffffff16565b836005015461109390919063ffffffff16565b8160050181905550816006015481600601819055508160020160009054906101000a900473ffffffffffffffffffffffffffffffffffffffff168160020160006101000a81548173ffffffffffffffffffffffffffffffffffffffff021916908373ffffffffffffffffffffffffffffffffffffffff16021790555060018160070160006101000a81548160ff0219169083151502179055508160000154816008018190555060008160090160006101000a81548160ff0219169083151502179055508092505050919050565b600061238f83836040518060400160405280601a81526020017f536166654d6174683a206469766973696f6e206279207a65726f000000000000815250612480565b905092915050565b6000808314156123aa5760009050612417565b60008284029050828482816123bb57fe5b0414612412576040517f08c379a00000000000000000000000000000000000000000000000000000000081526004018080602001828103825260218152602001806128d16021913960400191505060405180910390fd5b809150505b92915050565b600061244f61243c62015180846006015461239790919063ffffffff16565b836005015461109390919063ffffffff16565b42119050919050565b6000816005015442119050919050565b60606124778484600085612546565b90509392505050565b6000808311829061252c576040517f08c379a00000000000000000000000000000000000000000000000000000000081526004018080602001828103825283818151815260200191508051906020019080838360005b838110156124f15780820151818401526020810190506124d6565b50505050905090810190601f16801561251e5780820380516001836020036101000a031916815260200191505b509250505060405180910390fd5b50600083858161253857fe5b049050809150509392505050565b60606125518561274c565b6125c3576040517f08c379a000000000000000000000000000000000000000000000000000000000815260040180806020018281038252601d8152602001807f416464726573733a2063616c6c20746f206e6f6e2d636f6e747261637400000081525060200191505060405180910390fd5b600060608673ffffffffffffffffffffffffffffffffffffffff1685876040518082805190602001908083835b6020831061261357805182526020820191506020810190506020830392506125f0565b6001836020036101000a03801982511681845116808217855250505050505090500191505060006040518083038185875af1925050503d8060008114612675576040519150601f19603f3d011682016040523d82523d6000602084013e61267a565b606091505b5091509150811561268f578092505050612744565b6000815111156126a25780518082602001fd5b836040517f08c379a00000000000000000000000000000000000000000000000000000000081526004018080602001828103825283818151815260200191508051906020019080838360005b838110156127095780820151818401526020810190506126ee565b50505050905090810190601f1680156127365780820380516001836020036101000a031916815260200191505b509250505060405180910390fd5b949350505050565b600080823b905060008111915050919050565b8280548282559060005260206000209081019282156127a05760005260206000209182015b8281111561279f578254825591600101919060010190612784565b5b5090506127ad91906127b1565b5090565b6127f191905b808211156127ed57600081816101000a81549073ffffffffffffffffffffffffffffffffffffffff0219169055506001016127b7565b5090565b9056fe466f756e7461696e3a3a637265617465507572706f73653a204164647265737320616c726561647920686173206120707572706f73652c2063616c6c20607570646174656020696e7374656164466f756e7461696e3a3a676574416374697665507572706f736549643a20507572706f7365206e6f7420666f756e64466f756e7461696e3a3a67657450656e64696e67507572706f736549643a20507572706f7365206e6f7420666f756e64466f756e7461696e3a3a726564697374726962757465507572706f73653a20507572706f7365206e6f7420666f756e64536166654d6174683a206d756c7469706c69636174696f6e206f766572666c6f77466f756e7461696e3a3a676574416374697665507572706f736549643a20496e76616c696420707572706f7365466f756e7461696e3a3a6765744c6174657374507572706f736549643a20507572706f7365206e6f7420666f756e6454686973206164647265737320646f65736e2774206861766520656e6f75676820746f2077697468647261772074686973206d7563682e466f756e7461696e3a3a7375737461696e3a20546865207375737461696e6d656e7420616d6f756e742073686f756c6420626520706f736974697665466f756e7461696e3a3a73746174653a20496e76616c696420707572706f73652069645361666545524332303a204552433230206f7065726174696f6e20646964206e6f742073756363656564466f756e7461696e3a3a7375737461696e3a20507572706f7365206e6f7420666f756e64466f756e7461696e3a3a637265617465507572706f73653a204120707572706f7365206d757374206265206174206c65617374206f6e6520646179206c6f6e67466f756e7461696e3a3a637265617465507572706f736546726f6d49643a20496e76616c696420707572706f7365a2646970667358221220c76fc55b8267e66bc3ed792fc42eddccfac6b56e1243493919a260ec09cecfda64736f6c63430006060033",
  "immutableReferences": {},
  "source": "pragma solidity >=0.4.25 <0.8.0;\n\nimport \"@openzeppelin/contracts/token/ERC20/IERC20.sol\";\nimport \"@openzeppelin/contracts/token/ERC20/SafeERC20.sol\";\nimport \"@openzeppelin/contracts/math/SafeMath.sol\";\n\n/**\n\n @title Fountain\n\n Create a Purpose and say how much it'll cost to persue that purpose.\n Maybe your Purpose is providing a service or public good, maybe it's being a YouTuber, engineer, or artist -- or anything else.\n Anyone with your address can help sustain your Purpose, and\n once you're sustainable any additional contributions are redistributed back your sustainers and those you depend on.\n\n Each Purpose is like a tier of the fountain, and the predefined cost to pursue the purpose is like the bounds of that tier's pool.\n\n Your Purpose could be personal, or it could be managed by an address controlled by a community or business.\n Either way, an address can only be associated with one active Purpose at a time, and one queued up for when the active one expires.\n\n If a Purpose expires without one queued, the current one will be cloned and sustainments will be allocated to it.\n\n To avoid abuse, it's impossible for a Purpose's sustainability or duration to be changed once there has been a sustainment made to it.\n Any attempts to do so will just create/update the message sender's queued purpose.\n\n You can withdraw funds of yours from the sustainers pool (where surplus is distributed) or the sustainability pool (where sustainments are kept) at anytime.\n\n*/\ncontract Fountain {\n    using SafeMath for uint256;\n    using SafeERC20 for IERC20;\n\n    /// @notice Possible states that a Purpose may be in\n    // immutable once the Purpose receives some sustainment.\n    // entirely mutable until they become active.\n    enum PurposeState {Pending, Active, Redistributing}\n\n    // The Purpose structure represents a purpose stewarded by an address, and accounts for which addresses have contributed to it.\n    struct Purpose {\n        // A unique ID for this purpose.\n        uint256 id;\n        // The address who defined this Purpose and who has access to its sustainments.\n        address who;\n        // The token that this Purpose can be funded with. Currently only DAI is supported.\n        IERC20 want;\n        // The amount that represents sustainability for this purpose.\n        uint256 sustainabilityTarget;\n        // The running amount that's been contributed to sustaining this purpose.\n        uint256 currentSustainment;\n        // The time when this Purpose will become active.\n        uint256 start;\n        // The number of days until this Purpose's redistribution is added to the redistributionPool.\n        uint256 duration;\n        // Helper to verify this Purpose exists.\n        bool exists;\n        // ID of the previous purpose\n        uint256 previousPurposeId;\n        // Indicates if surplus funds have been redistributed\n        bool redistributed;\n        // The addresses who have helped to sustain this purpose.\n        // FIXME: Using arrays appears to be bad practice and can be expensive\n        address[] sustainers;\n        // The amount each address has contributed to the sustaining of this purpose.\n        mapping(address => uint256) sustainmentTracker;\n        // The amount that will be redistributed to each address as a\n        // consequence of abundant sustainment of this Purpose once it resolves.\n        mapping(address => uint256) redistributionTracker;\n    }\n\n    enum Pool {REDISTRIBUTION, SUSTAINABILITY}\n\n    /// @notice The official record of all Purposes ever created\n    mapping(uint256 => Purpose) public purposes;\n\n    /// @notice The latest purpose for each owner\n    mapping(address => uint256) public latestPurposeIds;\n\n    // TODO: Storing and iterating arrays in state is not going to work\n    // see https://ethereum.stackexchange.com/a/27535\n    // Instead redistribution status is checked and redistribution takes place\n    // if needed each time a purpose is interacted with (sustain, updatePurpose,\n    // withdrawFromSustainabilityPool)\n    // // The purpose ids which have not redistributed surplus funds yet.\n    // uint256[] lockedPurposeIds;\n\n    // The amount that has been redistributed to each address as a consequence of surplus.\n    mapping(address => uint256) redistributionPool;\n\n    // The funds that have accumulated to sustain each address's Purposes.\n    mapping(address => uint256) sustainabilityPool;\n\n    // The total number of Purposes created, which is used for issuing Purpose IDs.\n    // uint256 numPurposes;\n    uint256 purposeCount;\n\n    // The contract currently only supports sustainments in DAI.\n    IERC20 public DAI;\n\n    event PurposeCreated(\n        uint256 indexed id,\n        address indexed by,\n        uint256 sustainabilityTarget,\n        uint256 duration,\n        IERC20 want\n    );\n\n    event PurposeSustained(\n        uint256 indexed id,\n        address indexed sustainer,\n        uint256 amount\n    );\n\n    event Withdrawn(address indexed by, Pool indexed from, uint256 amount);\n\n    constructor() public {\n        DAI = IERC20(address(0x6B175474E89094C44Da98b954EedeAC495271d0F));\n        purposeCount = 0;\n    }\n\n    /// @dev Creates a Purpose to be sustained for the sending address.\n    /// @param t The sustainability target for the Purpose, in DAI.\n    /// @param d The duration of the Purpose, which starts once this is created.\n    function createPurpose(uint256 t, uint256 d) external {\n        require(\n            latestPurposeIds[msg.sender] == 0,\n            \"Fountain::createPurpose: Address already has a purpose, call `update` instead\"\n        );\n        require(\n            d >= 1,\n            \"Fountain::createPurpose: A purpose must be at least one day long\"\n        );\n\n        purposeCount.add(1);\n        // Must create structs that have mappings using this approach to avoid\n        // the RHS creating a memory-struct that contains a mapping.\n        // See https://ethereum.stackexchange.com/a/72310\n        Purpose storage newPurpose = purposes[purposeCount];\n        newPurpose.id = purposeCount;\n        newPurpose.who = msg.sender;\n        newPurpose.sustainabilityTarget = t;\n        newPurpose.currentSustainment = 0;\n        newPurpose.start = now;\n        newPurpose.duration = d;\n        newPurpose.want = DAI;\n        newPurpose.exists = true;\n        newPurpose.previousPurposeId = 0;\n        newPurpose.redistributed = false;\n\n        latestPurposeIds[msg.sender] = newPurpose.id;\n\n        emit PurposeCreated(newPurpose.id, msg.sender, t, d, DAI);\n    }\n\n    /// @dev Contribute a specified amount to the sustainability of the specified address's active Purpose.\n    /// @dev If the amount results in surplus, redistribute the surplus proportionally to sustainers of the Purpose.\n    /// @param w Address to sustain.\n    /// @param a Amount of sustainment.\n    function sustain(address w, uint256 a) external {\n        require(\n            a > 0,\n            \"Fountain::sustain: The sustainment amount should be positive\"\n        );\n\n        // Make sure all available redistributions have been completed for\n        // the purpose\n        redistributePurpose(w);\n\n        uint256 purposeId = purposeIdToSustain(w);\n        Purpose storage currentPurpose = purposes[purposeId];\n\n        require(currentPurpose.exists, \"Fountain::sustain: Purpose not found\");\n\n        // The amount that should be reserved for the sustainability of the Purpose.\n        // If the Purpose is already sustainable, set to 0.\n        // If the Purpose is not yet sustainable even with the amount, set to the amount.\n        // Otherwise set to the portion of the amount it'll take for sustainability to be reached\n        uint256 sustainabilityAmount = currentPurpose.currentSustainment.add(\n            a\n        ) <= currentPurpose.sustainabilityTarget\n            ? a\n            : currentPurpose.currentSustainment >=\n                currentPurpose.sustainabilityTarget\n            ? 0\n            : currentPurpose.sustainabilityTarget.sub(\n                currentPurpose.currentSustainment\n            );\n\n        // Save if the message sender is contributing to this Purpose for the first time.\n        bool isNewSustainer = currentPurpose.sustainmentTracker[msg.sender] ==\n            0;\n\n        // Move the full sustainment amount to this address.\n        DAI.transferFrom(msg.sender, address(this), a);\n\n        // Increment the funds that can withdrawn for sustainability.\n        sustainabilityPool[w] = sustainabilityPool[w].add(sustainabilityAmount);\n\n        // Increment the sustainments to the Purpose made by the message sender.\n        currentPurpose.sustainmentTracker[msg.sender] = currentPurpose\n            .sustainmentTracker[msg.sender]\n            .add(a);\n\n        // Increment the total amount contributed to the sustainment of the Purpose.\n        currentPurpose.currentSustainment = currentPurpose\n            .currentSustainment\n            .add(a);\n\n        // Add the message sender as a sustainer of the Purpose if this is the first sustainment it's making to it.\n        if (isNewSustainer) currentPurpose.sustainers.push(msg.sender);\n\n        // Redistribution amounts may have changed for the current Purpose.\n        updateTrackedRedistribution(currentPurpose);\n\n        // Emit events.\n        emit PurposeSustained(currentPurpose.id, msg.sender, a);\n    }\n\n    /// @dev A message sender can withdraw what's been redistributed to it by a Purpose once it's expired.\n    /// @dev Note that funds may not have been fully redistributed and calling this does not redistribute. Calls to withdrawFromSustainabilityPool, sustain, and updatePurpose with trigger a redistribution only for the purpose they are called upon.\n    /// @param a The amount to withdraw.\n    function withdrawFromRedistributionPool(uint256 a) external {\n        // TODO: This won't work. Storing an array in storage and iterating\n        // elements is prohibitively expensive. And I was having troubles even\n        // getting something to compile.\n        // // Before withdrawing, make sure any expired Purposes' trackedRedistribution\n        // // has been added to the redistribution pool.\n        // updateRedistributionPool();\n\n        require(\n            redistributionPool[msg.sender] >= a,\n            \"This address doesn't have enough to withdraw this much.\"\n        );\n\n        DAI.safeTransferFrom(address(this), msg.sender, a);\n\n        redistributionPool[msg.sender] = redistributionPool[msg.sender].sub(a);\n\n        emit Withdrawn(msg.sender, Pool.SUSTAINABILITY, a);\n    }\n\n    /// @dev A message sender can withdrawl funds that have been used to sustain it's Purposes.\n    /// @param a The amount to withdraw.\n    function withdrawFromSustainabilityPool(uint256 a) external {\n        // Make sure all available redistributions have been completed for\n        // the sender's purpose\n        redistributePurpose(msg.sender);\n\n        require(\n            sustainabilityPool[msg.sender] >= a,\n            \"This address doesn't have enough to withdraw this much.\"\n        );\n\n        DAI.safeTransferFrom(address(this), msg.sender, a);\n\n        sustainabilityPool[msg.sender] = sustainabilityPool[msg.sender].sub(a);\n\n        emit Withdrawn(msg.sender, Pool.SUSTAINABILITY, a);\n    }\n\n    /// @dev Updates the sustainability target and duration of the sender's current Purpose if it hasn't yet received sustainments, or\n    /// @dev sets the properties of the Purpose that will take effect once the current Purpose expires.\n    /// @param t The sustainability target to set.\n    /// @param d The duration to set.\n    function updatePurpose(\n        uint256 t,\n        uint256 d // address _want\n    ) external {\n        // Make sure all available redistributions have been completed for\n        // the sender's purpose\n        redistributePurpose(msg.sender);\n        uint256 purposeId = purposeIdToUpdate(msg.sender);\n        Purpose storage purpose = purposes[purposeId];\n        if (t > 0) purpose.sustainabilityTarget = t;\n        if (d > 0) purpose.duration = d;\n        purpose.want = DAI; //IERC20(_want);\n    }\n\n    /// @dev The sustainability of a Purpose cannot be updated if there have been sustainments made to it.\n    /// @param w The address to find a Purpose for.\n    function purposeIdToUpdate(address w) private returns (uint256) {\n        // Check if there is an active purpose\n        uint256 purposeId = getActivePurposeId(w);\n        if (purposeId != 0 && purposes[purposeId].currentSustainment == 0) {\n            // Allow active purpose to be updated if it has no sustainments\n            return purposeId;\n        }\n\n        // Cannot update active purpose, check if there is a pending purpose\n        // TODO: Is it possible to have an active purpose that hasn't been\n        // sustained as well as a pending purpose?\n        purposeId = getPendingPurposeId(w);\n        if (purposeId != 0) {\n            return purposeId;\n        }\n\n        // No pending purpose found, clone the latest purpose\n        purposeId = getLatestPurposeId(w);\n        Purpose storage purpose = createPurposeFromId(purposeId);\n        purposes[purpose.id] = purpose;\n        latestPurposeIds[purpose.who] = purpose.id;\n        return purpose.id;\n    }\n\n    /// @dev Only active or pending Purposes can be sustained. TODO Is this true?\n    /// @param w The address to find a Purpose for.\n    function purposeIdToSustain(address w) private returns (uint256) {\n        // Check if there is an active purpose\n        uint256 purposeId = getActivePurposeId(w);\n        if (purposeId != 0) {\n            return purposeId;\n        }\n\n        // No active purpose found, check if there is a pending purpose\n        purposeId = getPendingPurposeId(w);\n        if (purposeId != 0) {\n            return purposeId;\n        }\n\n        // No pending purpose found, clone the latest purpose\n        purposeId = getLatestPurposeId(w);\n        Purpose storage purpose = createPurposeFromId(purposeId);\n        purposes[purpose.id] = purpose;\n        latestPurposeIds[purpose.who] = purpose.id;\n\n        return purpose.id;\n    }\n\n    /// @dev Proportionally allocate the specified amount to the contributors of the specified Purpose,\n    /// @dev meaning each sustainer will receive a portion of the specified amount equivalent to the portion of the total\n    /// @dev amount contributed to the sustainment of the Purpose that they are responsible for.\n    /// @param p The Purpose to update.\n    function updateTrackedRedistribution(Purpose storage p) private {\n        // Return if there's no surplus.\n        if (p.sustainabilityTarget >= p.currentSustainment) return;\n\n        uint256 surplus = p.sustainabilityTarget.sub(p.currentSustainment);\n\n        // For each sustainer, calculate their share of the sustainment and\n        // allocate a proportional share of the surplus, overwriting any previous value.\n        for (uint256 i = 0; i < p.sustainers.length; i++) {\n            address sustainer = p.sustainers[i];\n\n            uint256 currentSustainmentProportion = p\n                .sustainmentTracker[sustainer]\n                .div(p.currentSustainment);\n\n            uint256 sustainerSurplusShare = surplus.mul(\n                currentSustainmentProportion\n            );\n\n            //Store the updated redistribution in the Purpose.\n            p.redistributionTracker[sustainer] = sustainerSurplusShare;\n        }\n    }\n\n    // TODO Remove this, as it won't work.\n    // /// @dev Check to see if there are any locked purposes that have expired.\n    // /// @dev If so, unlock them by removing them from the lockedPurposes array.\n    // function updateRedistributionPool() private {\n    //     // TODO: Need to use an array in storage because it is not possible to resize memory arrays\n    //     // Otherwise need to define the size of the array during initialization\n    //     // Compiler error: Unable to deduce common type for array elements.\n    //     // See: https://ethereum.stackexchange.com/questions/11533/how-to-initialize-an-empty-array-and-push-items-into-it\n    //     Purpose[] memory updatedLockedPurposes = new Purpose[](\n    //         lockedPurposes.length\n    //     ); // TODO error on this line\n    //     for (uint256 i = 0; i < lockedPurposes.length; i++) {\n    //         Purpose storage lockedPurpose = lockedPurposes[i];\n    //         if (isPurposeExpired(lockedPurpose)) unlockPurpose(lockedPurpose);\n    //         else updatedLockedPurposes.push(lockedPurposes);\n    //     }\n    //     //TODO verify this way to manipulate array storage works.\n    //     lockedPurposes = updatedLockedPurposes;\n    // }\n\n    /// @dev Check to see if the given Purpose has started.\n    /// @param p The Purpose to check.\n    function isPurposeStarted(Purpose storage p) private view returns (bool) {\n        return now > p.start;\n    }\n\n    /// @dev Check to see if the given Purpose has expired.\n    /// @param p The Purpose to check.\n    function isPurposeExpired(Purpose storage p) private view returns (bool) {\n        return now > p.start.add(p.duration.mul(1 days));\n    }\n\n    /// @dev Take any tracked redistribution in the given purpose and\n    /// @dev add them to the redistribution pool.\n    /// @param purposeAddress The Purpose address to redistribute.\n    function redistributePurpose(address purposeAddress) private {\n        uint256 purposeId = latestPurposeIds[purposeAddress];\n        require(\n            purposeId > 0,\n            \"Fountain::redistributePurpose: Purpose not found\"\n        );\n        Purpose storage purpose = purposes[purposeId];\n\n        // Iterate through all purposes for this address. For each iteration,\n        // if the purpose has a state of redistributing and it has not yet\n        // been redistributed, then process the redistribution. Iterate until\n        // a purpose is found that has already been redistributed. This logic\n        // should skip Active and Pending purposes.\n        while (purposeId > 0 && !purpose.redistributed) {\n            if (state(purpose.id) == PurposeState.Redistributing) {\n                // This purpose still needs to be redistributed\n                for (uint256 i = 0; i < purpose.sustainers.length; i++) {\n                    address sustainer = purpose.sustainers[i];\n                    redistributionPool[sustainer] = redistributionPool[sustainer]\n                        .add(purpose.redistributionTracker[sustainer]);\n                }\n                // Mark purpose as having been redistributed\n                purpose.redistributed = true;\n            }\n            purposeId = purpose.previousPurposeId;\n            purpose = purposes[purposeId];\n        }\n    }\n\n    /// @dev Returns a copy of the given Purpose with reset sustainments, and\n    /// @dev that starts when the given Purpose expired.\n    function createPurposeFromId(uint256 purposeId)\n        private\n        returns (Purpose storage)\n    {\n        Purpose storage currentPurpose = purposes[purposeId];\n        require(\n            currentPurpose.exists,\n            \"Fountain::createPurposeFromId: Invalid purpose\"\n        );\n\n        purposeCount.add(1);\n        // Must create structs that have mappings using this approach to avoid\n        // the RHS creating a memory-struct that contains a mapping.\n        // See https://ethereum.stackexchange.com/a/72310\n        Purpose storage purpose = purposes[purposeCount];\n        purpose.id = purposeCount;\n        purpose.who = currentPurpose.who;\n        purpose.sustainabilityTarget = currentPurpose.sustainabilityTarget;\n        purpose.currentSustainment = 0;\n        purpose.start = currentPurpose.start.add(\n            currentPurpose.duration.mul(1 days)\n        );\n        purpose.duration = currentPurpose.duration;\n        purpose.want = currentPurpose.want;\n        purpose.exists = true;\n        purpose.previousPurposeId = currentPurpose.id;\n        purpose.redistributed = false;\n\n        // TODO: Should this emit PurposeCreated event? The callers of this will\n        // emit PurposeUpdated and PurposeSustained events, but those events\n        // don't indicate if a new Purpose was created.\n        return purpose;\n    }\n\n    function state(uint256 purposeId) private view returns (PurposeState) {\n        require(\n            purposeCount >= purposeId && purposeId > 0,\n            \"Fountain::state: Invalid purpose id\"\n        );\n        Purpose storage purpose = purposes[purposeId];\n        require(purpose.exists, \"Fountain::state: Invalid purpose\");\n\n        if (isPurposeExpired(purpose)) {\n            return PurposeState.Redistributing;\n        } else if (isPurposeStarted(purpose) && !isPurposeExpired(purpose)) {\n            return PurposeState.Active;\n        } else {\n            return PurposeState.Pending;\n        }\n    }\n\n    function getLatestPurposeId(address purposeAddress)\n        private\n        view\n        returns (uint256)\n    {\n        uint256 purposeId = latestPurposeIds[purposeAddress];\n        require(\n            purposeId > 0,\n            \"Fountain::getLatestPurposeId: Purpose not found\"\n        );\n        return purposeId;\n    }\n\n    function getPendingPurposeId(address purposeAddress)\n        private\n        view\n        returns (uint256)\n    {\n        uint256 purposeId = latestPurposeIds[purposeAddress];\n        require(\n            purposeId > 0,\n            \"Fountain::getPendingPurposeId: Purpose not found\"\n        );\n        if (state(purposeId) != PurposeState.Pending) {\n            // There is no pending purpose if the latest Purpose is not pending\n            return 0;\n        }\n        return purposeId;\n    }\n\n    function getActivePurposeId(address purposeAddress)\n        private\n        view\n        returns (uint256)\n    {\n        uint256 purposeId = latestPurposeIds[purposeAddress];\n        require(\n            purposeId > 0,\n            \"Fountain::getActivePurposeId: Purpose not found\"\n        );\n        // An Active purpose must be either the latest purpose or the\n        // purpose immediately before it.\n        if (state(purposeId) == PurposeState.Active) {\n            return purposeId;\n        }\n        Purpose storage purpose = purposes[purposeId];\n        require(\n            purpose.exists,\n            \"Fountain::getActivePurposeId: Invalid purpose\"\n        );\n        purposeId = purpose.previousPurposeId;\n        if (state(purposeId) == PurposeState.Active) {\n            return purposeId;\n        }\n        return 0;\n\n        // TODO Remove this once above logic is tested and working properly\n        // // uint256 count = 0;\n        // while (purposeId != 0 && state(purposeId) != PurposeState.Active) {\n        //     Purpose memory purpose = purposes(purposeId);\n        //     if (purpose.start + purpose.duration > now) {\n        //         // There is no active purpose when the current Purpose ends after\n        //         // now and is not currently active\n        //         return 0;\n        //     }\n        //     purposeId = purpose.previousPurposeId;\n        //     if (state(purposeId) == PurposeState.Redistributing) {\n        //         // There is no active purpose when the previous Purpose is in\n        //         // the Redistributing state\n        //         return 0;\n        //     }\n        //     // count.add(1);\n        //     // TODO: Confirm loop should never execute more than 2 times??\n        //     // assert(count < 2);\n        // }\n        // return purposeId;\n    }\n\n    // // Not yet used\n    // function calculateFee(uint256 _amount, uint8 _basisPoints)\n    //     private\n    //     pure\n    //     returns (uint256)\n    // {\n    //     require((_amount.div(10000)).mul(10000) == _amount, \"Amount too small\");\n    //     return (_amount.mul(_basisPoints)).div(1000);\n    // }\n}\n",
  "sourcePath": "/Users/tauren/github/tauren/fountain.finance/contracts/Fountain.sol",
  "compiler": {
    "name": "solc",
    "version": "0.6.6+commit.6c089d02.Emscripten.clang"
  },
  "schemaVersion": "3.3.1",
  "updatedAt": "2020-11-10T09:37:32.176Z",
  "devdoc": {
    "methods": {
      "createPurpose(uint256,uint256)": {
        "details": "Creates a Purpose to be sustained for the sending address.",
        "params": {
          "d": "The duration of the Purpose, which starts once this is created.",
          "t": "The sustainability target for the Purpose, in DAI."
        }
      },
      "sustain(address,uint256)": {
        "details": "Contribute a specified amount to the sustainability of the specified address's active Purpose.If the amount results in surplus, redistribute the surplus proportionally to sustainers of the Purpose.",
        "params": {
          "a": "Amount of sustainment.",
          "w": "Address to sustain."
        }
      },
      "updatePurpose(uint256,uint256)": {
        "details": "Updates the sustainability target and duration of the sender's current Purpose if it hasn't yet received sustainments, orsets the properties of the Purpose that will take effect once the current Purpose expires.",
        "params": {
          "d": "The duration to set.",
          "t": "The sustainability target to set."
        }
      },
      "withdrawFromRedistributionPool(uint256)": {
        "details": "A message sender can withdraw what's been redistributed to it by a Purpose once it's expired.Note that funds may not have been fully redistributed and calling this does not redistribute. Calls to withdrawFromSustainabilityPool, sustain, and updatePurpose with trigger a redistribution only for the purpose they are called upon.",
        "params": {
          "a": "The amount to withdraw."
        }
      },
      "withdrawFromSustainabilityPool(uint256)": {
        "details": "A message sender can withdrawl funds that have been used to sustain it's Purposes.",
        "params": {
          "a": "The amount to withdraw."
        }
      }
    },
    "title": "Fountain Create a Purpose and say how much it'll cost to persue that purpose. Maybe your Purpose is providing a service or public good, maybe it's being a YouTuber, engineer, or artist -- or anything else. Anyone with your address can help sustain your Purpose, and once you're sustainable any additional contributions are redistributed back your sustainers and those you depend on. Each Purpose is like a tier of the fountain, and the predefined cost to pursue the purpose is like the bounds of that tier's pool. Your Purpose could be personal, or it could be managed by an address controlled by a community or business. Either way, an address can only be associated with one active Purpose at a time, and one queued up for when the active one expires. If a Purpose expires without one queued, the current one will be cloned and sustainments will be allocated to it. To avoid abuse, it's impossible for a Purpose's sustainability or duration to be changed once there has been a sustainment made to it. Any attempts to do so will just create/update the message sender's queued purpose. You can withdraw funds of yours from the sustainers pool (where surplus is distributed) or the sustainability pool (where sustainments are kept) at anytime."
  },
  "userdoc": {
    "methods": {}
  }
}