{
  "contractName": "Sustainers",
  "abi": [
    {
      "inputs": [],
      "stateMutability": "nonpayable",
      "type": "constructor"
    },
    {
      "anonymous": false,
      "inputs": [
        {
          "indexed": true,
          "internalType": "uint256",
          "name": "id",
          "type": "uint256"
        },
        {
          "indexed": true,
          "internalType": "address",
          "name": "steward",
          "type": "address"
        }
      ],
      "name": "PurposeBecameSustainable",
      "type": "event"
    },
    {
      "anonymous": false,
      "inputs": [
        {
          "indexed": true,
          "internalType": "uint256",
          "name": "id",
          "type": "uint256"
        },
        {
          "indexed": true,
          "internalType": "address",
          "name": "by",
          "type": "address"
        },
        {
          "indexed": false,
          "internalType": "uint256",
          "name": "sustainabilityTarget",
          "type": "uint256"
        },
        {
          "indexed": false,
          "internalType": "uint256",
          "name": "duration",
          "type": "uint256"
        },
        {
          "indexed": false,
          "internalType": "contract IERC20",
          "name": "want",
          "type": "address"
        }
      ],
      "name": "PurposeCreated",
      "type": "event"
    },
    {
      "anonymous": false,
      "inputs": [
        {
          "indexed": true,
          "internalType": "uint256",
          "name": "id",
          "type": "uint256"
        },
        {
          "indexed": true,
          "internalType": "address",
          "name": "sustainer",
          "type": "address"
        },
        {
          "indexed": false,
          "internalType": "uint256",
          "name": "amount",
          "type": "uint256"
        }
      ],
      "name": "PurposeSustained",
      "type": "event"
    },
    {
      "anonymous": false,
      "inputs": [
        {
          "indexed": true,
          "internalType": "address",
          "name": "by",
          "type": "address"
        },
        {
          "indexed": true,
          "internalType": "enum Sustainers.Pool",
          "name": "from",
          "type": "uint8"
        },
        {
          "indexed": false,
          "internalType": "uint256",
          "name": "amount",
          "type": "uint256"
        }
      ],
      "name": "Withdraw",
      "type": "event"
    },
    {
      "inputs": [],
      "name": "DAI",
      "outputs": [
        {
          "internalType": "contract IERC20",
          "name": "",
          "type": "address"
        }
      ],
      "stateMutability": "view",
      "type": "function"
    },
    {
      "inputs": [
        {
          "internalType": "address",
          "name": "_steward",
          "type": "address"
        }
      ],
      "name": "getSustainment",
      "outputs": [
        {
          "internalType": "uint256",
          "name": "total",
          "type": "uint256"
        },
        {
          "internalType": "uint256",
          "name": "net",
          "type": "uint256"
        },
        {
          "internalType": "uint256",
          "name": "share",
          "type": "uint256"
        },
        {
          "internalType": "uint256",
          "name": "purposeId",
          "type": "uint256"
        }
      ],
      "stateMutability": "view",
      "type": "function"
    },
    {
      "inputs": [
        {
          "internalType": "uint256",
          "name": "_sustainabilityTarget",
          "type": "uint256"
        }
      ],
      "name": "updateSustainability",
      "outputs": [],
      "stateMutability": "nonpayable",
      "type": "function"
    },
    {
      "inputs": [
        {
          "internalType": "uint256",
          "name": "_duration",
          "type": "uint256"
        }
      ],
      "name": "updateDuration",
      "outputs": [],
      "stateMutability": "nonpayable",
      "type": "function"
    },
    {
      "inputs": [
        {
          "internalType": "uint256",
          "name": "_sustainabilityTarget",
          "type": "uint256"
        },
        {
          "internalType": "uint256",
          "name": "_duration",
          "type": "uint256"
        }
      ],
      "name": "updatePurpose",
      "outputs": [],
      "stateMutability": "nonpayable",
      "type": "function"
    },
    {
      "inputs": [
        {
          "internalType": "uint256",
          "name": "_sustainabilityTarget",
          "type": "uint256"
        },
        {
          "internalType": "uint256",
          "name": "_duration",
          "type": "uint256"
        },
        {
          "internalType": "uint256",
          "name": "_start",
          "type": "uint256"
        }
      ],
      "name": "createPurpose",
      "outputs": [],
      "stateMutability": "nonpayable",
      "type": "function"
    },
    {
      "inputs": [
        {
          "internalType": "address",
          "name": "_steward",
          "type": "address"
        },
        {
          "internalType": "uint256",
          "name": "_amount",
          "type": "uint256"
        }
      ],
      "name": "sustain",
      "outputs": [],
      "stateMutability": "nonpayable",
      "type": "function"
    },
    {
      "inputs": [
        {
          "internalType": "uint256",
          "name": "_amount",
          "type": "uint256"
        }
      ],
      "name": "withdrawFromSustainersPool",
      "outputs": [],
      "stateMutability": "nonpayable",
      "type": "function"
    },
    {
      "inputs": [
        {
          "internalType": "uint256",
          "name": "_amount",
          "type": "uint256"
        }
      ],
      "name": "withdrawFromSustainabilityPool",
      "outputs": [],
      "stateMutability": "nonpayable",
      "type": "function"
    }
  ],
  "bytecode": "0x608060405234801561001057600080fd5b50736b175474e89094c44da98b954eedeac495271d0f600560006101000a81548173ffffffffffffffffffffffffffffffffffffffff021916908373ffffffffffffffffffffffffffffffffffffffff1602179055506000600481905550611e678061007d6000396000f3fe608060405234801561001057600080fd5b50600436106100935760003560e01c80635b237f76116100665780635b237f761461018f5780635c717f70146101c75780639a3c38ea146101f5578063a493c2dd14610243578063e0bab4c41461028557610093565b80631b50ad091461009857806324c00d9e146100c65780633544a9cf146100f4578063597a702114610122575b600080fd5b6100c4600480360360208110156100ae57600080fd5b81019080803590602001909291905050506102cf565b005b6100f2600480360360208110156100dc57600080fd5b81019080803590602001909291905050506102e9565b005b6101206004803603602081101561010a57600080fd5b81019080803590602001909291905050506104c3565b005b6101646004803603602081101561013857600080fd5b81019080803573ffffffffffffffffffffffffffffffffffffffff16906020019092919050505061069c565b6040518085815260200184815260200183815260200182815260200194505050505060405180910390f35b6101c5600480360360408110156101a557600080fd5b810190808035906020019092919080359060200190929190505050610828565b005b6101f3600480360360208110156101dd57600080fd5b81019080803590602001909291905050506108b1565b005b6102416004803603604081101561020b57600080fd5b81019080803573ffffffffffffffffffffffffffffffffffffffff16906020019092919080359060200190929190505050610930565b005b6102836004803603606081101561025957600080fd5b81019080803590602001909291908035906020019092919080359060200190929190505050610f41565b005b61028d61119c565b604051808273ffffffffffffffffffffffffffffffffffffffff1673ffffffffffffffffffffffffffffffffffffffff16815260200191505060405180910390f35b60006102da336111c2565b90508181600601819055505050565b80600260003373ffffffffffffffffffffffffffffffffffffffff1673ffffffffffffffffffffffffffffffffffffffff168152602001908152602001600020541015610381576040517f08c379a000000000000000000000000000000000000000000000000000000000815260040180806020018281038252602c815260200180611d5f602c913960400191505060405180910390fd5b6103d0303383600560009054906101000a900473ffffffffffffffffffffffffffffffffffffffff1673ffffffffffffffffffffffffffffffffffffffff16611418909392919063ffffffff16565b61042281600260003373ffffffffffffffffffffffffffffffffffffffff1673ffffffffffffffffffffffffffffffffffffffff1681526020019081526020016000205461150590919063ffffffff16565b600260003373ffffffffffffffffffffffffffffffffffffffff1673ffffffffffffffffffffffffffffffffffffffff168152602001908152602001600020819055506000600181111561047257fe5b3373ffffffffffffffffffffffffffffffffffffffff167fe3054ec6f352b09a86839beeeceb27ed4684f9164eb61f4a5d6d159ee8789d74836040518082815260200191505060405180910390a350565b80600360003373ffffffffffffffffffffffffffffffffffffffff1673ffffffffffffffffffffffffffffffffffffffff16815260200190815260200160002054101561055b576040517f08c379a000000000000000000000000000000000000000000000000000000000815260040180806020018281038252602c815260200180611d5f602c913960400191505060405180910390fd5b6105aa303383600560009054906101000a900473ffffffffffffffffffffffffffffffffffffffff1673ffffffffffffffffffffffffffffffffffffffff16611418909392919063ffffffff16565b6105fc81600360003373ffffffffffffffffffffffffffffffffffffffff1673ffffffffffffffffffffffffffffffffffffffff1681526020019081526020016000205461150590919063ffffffff16565b600360003373ffffffffffffffffffffffffffffffffffffffff1673ffffffffffffffffffffffffffffffffffffffff1681526020019081526020016000208190555060018081111561064b57fe5b3373ffffffffffffffffffffffffffffffffffffffff167fe3054ec6f352b09a86839beeeceb27ed4684f9164eb61f4a5d6d159ee8789d74836040518082815260200191505060405180910390a350565b60008060008060008060008773ffffffffffffffffffffffffffffffffffffffff1673ffffffffffffffffffffffffffffffffffffffff16815260200190815260200160002090508060080160003373ffffffffffffffffffffffffffffffffffffffff1673ffffffffffffffffffffffffffffffffffffffff1681526020019081526020016000205494506107bd8160090160003373ffffffffffffffffffffffffffffffffffffffff1673ffffffffffffffffffffffffffffffffffffffff168152602001908152602001600020548260080160003373ffffffffffffffffffffffffffffffffffffffff1673ffffffffffffffffffffffffffffffffffffffff1681526020019081526020016000205461150590919063ffffffff16565b935061081781600401548260080160003373ffffffffffffffffffffffffffffffffffffffff1673ffffffffffffffffffffffffffffffffffffffff1681526020019081526020016000205461154f90919063ffffffff16565b925080600001549150509193509193565b6000610833336111c2565b9050828160030181905550818160060181905550600560009054906101000a900473ffffffffffffffffffffffffffffffffffffffff168160020160006101000a81548173ffffffffffffffffffffffffffffffffffffffff021916908373ffffffffffffffffffffffffffffffffffffffff160217905550505050565b60006108bc336111c2565b9050818160030181905550600560009054906101000a900473ffffffffffffffffffffffffffffffffffffffff168160020160006101000a81548173ffffffffffffffffffffffffffffffffffffffff021916908373ffffffffffffffffffffffffffffffffffffffff1602179055505050565b60008111610989576040517f08c379a000000000000000000000000000000000000000000000000000000000815260040180806020018281038252602a815260200180611e08602a913960400191505060405180910390fd5b60008060008473ffffffffffffffffffffffffffffffffffffffff1673ffffffffffffffffffffffffffffffffffffffff168152602001908152602001600020905080600a0160009054906101000a900460ff16610a32576040517f08c379a0000000000000000000000000000000000000000000000000000000008152600401808060200182810382526032815260200180611dac6032913960400191505060405180910390fd5b62015180816006015402816005015401421115610aa0576000600160008573ffffffffffffffffffffffffffffffffffffffff1673ffffffffffffffffffffffffffffffffffffffff1681526020019081526020016000209050809150610a998484611599565b5050610f3d565b600082610abe8360040154846003015461150590919063ffffffff16565b11610ae357610ade8260040154836003015461150590919063ffffffff16565b610ae5565b825b90506000808360080160003373ffffffffffffffffffffffffffffffffffffffff1673ffffffffffffffffffffffffffffffffffffffff1681526020019081526020016000205414905060008360030154846004015410159050600560009054906101000a900473ffffffffffffffffffffffffffffffffffffffff1673ffffffffffffffffffffffffffffffffffffffff166323b872dd3330886040518463ffffffff1660e01b8152600401808473ffffffffffffffffffffffffffffffffffffffff1673ffffffffffffffffffffffffffffffffffffffff1681526020018373ffffffffffffffffffffffffffffffffffffffff1673ffffffffffffffffffffffffffffffffffffffff1681526020018281526020019350505050602060405180830381600087803b158015610c1c57600080fd5b505af1158015610c30573d6000803e3d6000fd5b505050506040513d6020811015610c4657600080fd5b810190808051906020019092919050505050610caa83600360008973ffffffffffffffffffffffffffffffffffffffff1673ffffffffffffffffffffffffffffffffffffffff1681526020019081526020016000205461159d90919063ffffffff16565b600360008873ffffffffffffffffffffffffffffffffffffffff1673ffffffffffffffffffffffffffffffffffffffff16815260200190815260200160002081905550610d41858560080160003373ffffffffffffffffffffffffffffffffffffffff1673ffffffffffffffffffffffffffffffffffffffff1681526020019081526020016000205461159d90919063ffffffff16565b8460080160003373ffffffffffffffffffffffffffffffffffffffff1673ffffffffffffffffffffffffffffffffffffffff16815260200190815260200160002081905550610d9d85856004015461159d90919063ffffffff16565b84600401819055508115610e115783600701339080600181540180825580915050600190039060005260206000200160009091909190916101000a81548173ffffffffffffffffffffffffffffffffffffffff021916908373ffffffffffffffffffffffffffffffffffffffff1602179055505b6000846003015485600401541115610e4357610e3e8560030154866004015461150590919063ffffffff16565b610e46565b60005b90506000811115610e5c57610e5b8582611625565b5b3373ffffffffffffffffffffffffffffffffffffffff1685600001547f3eba3883b2bc48775c7add9b4cee401e78b19b3d78bd9d1f20365bae4f811167886040518082815260200191505060405180910390a381158015610ec557508460030154856004015410155b15610f37578460010160009054906101000a900473ffffffffffffffffffffffffffffffffffffffff1673ffffffffffffffffffffffffffffffffffffffff1685600001547f674ad9c29440f511abffd829cac6d1b72cac01a1bc9dce2a3dca4822df9e2ef160405160405180910390a35b50505050505b5050565b6000803373ffffffffffffffffffffffffffffffffffffffff1673ffffffffffffffffffffffffffffffffffffffff168152602001908152602001600020600a0160009054906101000a900460ff1615611003576040517f08c379a000000000000000000000000000000000000000000000000000000000815260040180806020018281038252601b8152602001807f596f7520616c72656164792068617665206120707572706f73652e000000000081525060200191505060405180910390fd5b60008060003373ffffffffffffffffffffffffffffffffffffffff1673ffffffffffffffffffffffffffffffffffffffff16815260200190815260200160002090508181600501819055506004548160000181905550838160030181905550828160060181905550600560009054906101000a900473ffffffffffffffffffffffffffffffffffffffff168160020160006101000a81548173ffffffffffffffffffffffffffffffffffffffff021916908373ffffffffffffffffffffffffffffffffffffffff1602179055503373ffffffffffffffffffffffffffffffffffffffff166004547fadb2745991648d3e4eab2ec3abe0aefdf92b5f214e1f2915a02984ccd24053ca8686600560009054906101000a900473ffffffffffffffffffffffffffffffffffffffff16604051808481526020018381526020018273ffffffffffffffffffffffffffffffffffffffff1673ffffffffffffffffffffffffffffffffffffffff168152602001935050505060405180910390a3611195600160045461159d90919063ffffffff16565b5050505050565b600560009054906101000a900473ffffffffffffffffffffffffffffffffffffffff1681565b60008060008373ffffffffffffffffffffffffffffffffffffffff1673ffffffffffffffffffffffffffffffffffffffff168152602001908152602001600020600a0160009054906101000a900460ff16611285576040517f08c379a000000000000000000000000000000000000000000000000000000000815260040180806020018281038252601d8152602001807f596f7520646f6e2774207965742068617665206120707572706f73652e00000081525060200191505060405180910390fd5b60008060008473ffffffffffffffffffffffffffffffffffffffff1673ffffffffffffffffffffffffffffffffffffffff168152602001908152602001600020600401541415611314576000808373ffffffffffffffffffffffffffffffffffffffff1673ffffffffffffffffffffffffffffffffffffffff1681526020019081526020016000209050611413565b600160008373ffffffffffffffffffffffffffffffffffffffff1673ffffffffffffffffffffffffffffffffffffffff168152602001908152602001600020600a0160009054906101000a900460ff166113d1576000600160008473ffffffffffffffffffffffffffffffffffffffff1673ffffffffffffffffffffffffffffffffffffffff1681526020019081526020016000209050600181600a0160006101000a81548160ff02191690831515021790555080915050611413565b600160008373ffffffffffffffffffffffffffffffffffffffff1673ffffffffffffffffffffffffffffffffffffffff16815260200190815260200160002090505b919050565b6114ff846323b872dd60e01b858585604051602401808473ffffffffffffffffffffffffffffffffffffffff1673ffffffffffffffffffffffffffffffffffffffff1681526020018373ffffffffffffffffffffffffffffffffffffffff1673ffffffffffffffffffffffffffffffffffffffff1681526020018281526020019350505050604051602081830303815290604052907bffffffffffffffffffffffffffffffffffffffffffffffffffffffff19166020820180517bffffffffffffffffffffffffffffffffffffffffffffffffffffffff8381831617835250505050611832565b50505050565b600061154783836040518060400160405280601e81526020017f536166654d6174683a207375627472616374696f6e206f766572666c6f770000815250611921565b905092915050565b600061159183836040518060400160405280601a81526020017f536166654d6174683a206469766973696f6e206279207a65726f0000000000008152506119e1565b905092915050565b5050565b60008082840190508381101561161b576040517f08c379a000000000000000000000000000000000000000000000000000000000815260040180806020018281038252601b8152602001807f536166654d6174683a206164646974696f6e206f766572666c6f77000000000081525060200191505060405180910390fd5b8091505092915050565b6000811161162f57fe5b60008090505b826007018054905081101561182d57600083600701828154811061165557fe5b9060005260206000200160009054906101000a900473ffffffffffffffffffffffffffffffffffffffff16905060006116ee85600401546116e0868860080160008773ffffffffffffffffffffffffffffffffffffffff1673ffffffffffffffffffffffffffffffffffffffff16815260200190815260200160002054611aa790919063ffffffff16565b61154f90919063ffffffff16565b9050611744818660090160008573ffffffffffffffffffffffffffffffffffffffff1673ffffffffffffffffffffffffffffffffffffffff1681526020019081526020016000205461159d90919063ffffffff16565b8560090160008473ffffffffffffffffffffffffffffffffffffffff1673ffffffffffffffffffffffffffffffffffffffff168152602001908152602001600020819055506117db81600260008573ffffffffffffffffffffffffffffffffffffffff1673ffffffffffffffffffffffffffffffffffffffff1681526020019081526020016000205461159d90919063ffffffff16565b600260008473ffffffffffffffffffffffffffffffffffffffff1673ffffffffffffffffffffffffffffffffffffffff1681526020019081526020016000208190555050508080600101915050611635565b505050565b6060611894826040518060400160405280602081526020017f5361666545524332303a206c6f772d6c6576656c2063616c6c206661696c65648152508573ffffffffffffffffffffffffffffffffffffffff16611b2d9092919063ffffffff16565b905060008151111561191c578080602001905160208110156118b557600080fd5b810190808051906020019092919050505061191b576040517f08c379a000000000000000000000000000000000000000000000000000000000815260040180806020018281038252602a815260200180611dde602a913960400191505060405180910390fd5b5b505050565b60008383111582906119ce576040517f08c379a00000000000000000000000000000000000000000000000000000000081526004018080602001828103825283818151815260200191508051906020019080838360005b83811015611993578082015181840152602081019050611978565b50505050905090810190601f1680156119c05780820380516001836020036101000a031916815260200191505b509250505060405180910390fd5b5060008385039050809150509392505050565b60008083118290611a8d576040517f08c379a00000000000000000000000000000000000000000000000000000000081526004018080602001828103825283818151815260200191508051906020019080838360005b83811015611a52578082015181840152602081019050611a37565b50505050905090810190601f168015611a7f5780820380516001836020036101000a031916815260200191505b509250505060405180910390fd5b506000838581611a9957fe5b049050809150509392505050565b600080831415611aba5760009050611b27565b6000828402905082848281611acb57fe5b0414611b22576040517f08c379a0000000000000000000000000000000000000000000000000000000008152600401808060200182810382526021815260200180611d8b6021913960400191505060405180910390fd5b809150505b92915050565b6060611b3c8484600085611b45565b90509392505050565b6060611b5085611d4b565b611bc2576040517f08c379a000000000000000000000000000000000000000000000000000000000815260040180806020018281038252601d8152602001807f416464726573733a2063616c6c20746f206e6f6e2d636f6e747261637400000081525060200191505060405180910390fd5b600060608673ffffffffffffffffffffffffffffffffffffffff1685876040518082805190602001908083835b60208310611c125780518252602082019150602081019050602083039250611bef565b6001836020036101000a03801982511681845116808217855250505050505090500191505060006040518083038185875af1925050503d8060008114611c74576040519150601f19603f3d011682016040523d82523d6000602084013e611c79565b606091505b50915091508115611c8e578092505050611d43565b600081511115611ca15780518082602001fd5b836040517f08c379a00000000000000000000000000000000000000000000000000000000081526004018080602001828103825283818151815260200191508051906020019080838360005b83811015611d08578082015181840152602081019050611ced565b50505050905090810190601f168015611d355780820380516001836020036101000a031916815260200191505b509250505060405180910390fd5b949350505050565b600080823b90506000811191505091905056fe596f7520646f6e2774206861766520656e6f75676820746f2077697468647261772074686973206d7563682e536166654d6174683a206d756c7469706c69636174696f6e206f766572666c6f7754686973206163636f756e742069736e27742063757272656e746c792073746577617264696e67206120707572706f73652e5361666545524332303a204552433230206f7065726174696f6e20646964206e6f742073756363656564546865207375737461696e6d656e7420616d6f756e742073686f756c6420626520706f7369746976652ea26469706673582212200b5ec8fa64e9ce07d929f16bc56d63cb7e35a8a8c4147c9f0438fc4da2cbe3ac64736f6c63430006020033",
  "source": "pragma solidity >=0.4.25 <0.7.0;\n\nimport \"@openzeppelin/contracts/token/ERC20/IERC20.sol\";\nimport \"@openzeppelin/contracts/token/ERC20/SafeERC20.sol\";\nimport \"@openzeppelin/contracts/math/SafeMath.sol\";\n\n/* \n\n Create a Purpose and say how much it'll cost to persue that purpose. \n Maybe your purpose is providing a service or public good, maybe it's being a YouTuber, engineer, or artist -- or anything else.\n Anyone with your address can help sustain your purpose, and once you're sustainable any additional contributions are redistributed back your sustainers.\n\n Your Purpose could be personal, or it could be managed by an address controlled by a community or business. \n Either way, an address can only have one active Purpose at a time, and one queued up for when the active one expires.\n\n To avoid abuse, it's impossible for a steward to update a Purpose's sustainability or duration once there has been a sustainment made to it. \n Any attempts to do so will just create/update the steward's queued purpose.\n\n You can withdraw funds of yours from the sustainers pool (where surplus is distributed) or the sustainability pool (where sustainments are kept) at anytime.\n\n*/\ncontract Sustainers {\n    using SafeMath for uint256;\n    using SafeERC20 for IERC20;\n\n    // The Purpose structure represents a purpose envisioned by a steward, and accounts for who has contributed to the vision.\n    struct Purpose {\n        // A unique ID for this purpose.\n        uint256 id;\n        // The address which is stewarding this purpose and which has access to its funds.\n        address steward;\n        // The token that this Purpose can be funded with.\n        IERC20 want;\n        // The amount that represents sustainability for this purpose.\n        uint256 sustainabilityTarget;\n        // The running amount that's been contributed to sustaining this purpose.\n        uint256 sustainment;\n        // The time when this Purpose will become active.\n        uint256 start;\n        // The number of days this Purpose can be sustained for according to `sustainabilityTarget`.\n        uint256 duration;\n        // The addresses who have helped to sustain this purpose.\n        address[] sustainers;\n        // The amount each address has contributed to the sustaining of this purpose.\n        mapping(address => uint256) sustainments;\n        // The amount that has been redistributed to each address as a consequence of abundant sustainment of this Purpose.\n        mapping(address => uint256) redistribution;\n        // Helper to verify this Purpose exists.\n        bool exists;\n    }\n\n    enum Pool {SUSTAINERS, SUSTAINABILITY}\n\n    // The current Purposes, which are immutable once the Purpose receives some sustainment.\n    mapping(address => Purpose) currentPurposes;\n\n    // The next Purposes, which are entirely mutable until they becomes the current Purpose.\n    mapping(address => Purpose) nextPurposes;\n\n    // The amount that has been redistributed to each address as a consequence of overall abundance.\n    mapping(address => uint256) sustainersPool;\n\n    // The funds that have accumulated to sustain each steward's Purposes.\n    mapping(address => uint256) sustainabilityPool;\n\n    // The total number of Purposes created, which is used for issuing Purpose IDs.\n    uint256 numPurposes;\n\n    IERC20 public DAI;\n\n    event PurposeCreated(\n        uint256 indexed id,\n        address indexed by,\n        uint256 sustainabilityTarget,\n        uint256 duration,\n        IERC20 want\n    );\n\n    event PurposeSustained(\n        uint256 indexed id,\n        address indexed sustainer,\n        uint256 amount\n    );\n\n    event Withdraw(address indexed by, Pool indexed from, uint256 amount);\n\n    event PurposeBecameSustainable(uint256 indexed id, address indexed steward);\n\n    constructor() public {\n        DAI = IERC20(address(0x6B175474E89094C44Da98b954EedeAC495271d0F));\n        numPurposes = 0;\n    }\n\n    function getSustainment(address _steward)\n        public\n        view\n        returns (\n            uint256 total,\n            uint256 net,\n            uint256 share,\n            uint256 purposeId\n        )\n    {\n        Purpose storage purpose = currentPurposes[_steward];\n        total = purpose.sustainments[msg.sender];\n        net = purpose.sustainments[msg.sender].sub(\n            purpose.redistribution[msg.sender]\n        );\n        share = purpose.sustainments[msg.sender].div(purpose.sustainment);\n        purposeId = purpose.id;\n    }\n\n    function updateSustainability(uint256 _sustainabilityTarget)\n        public\n    // address _want\n    {\n        Purpose storage purpose = purposeToUpdate(msg.sender);\n        purpose.sustainabilityTarget = _sustainabilityTarget;\n        purpose.want = DAI; //IERC20(_want);\n    }\n\n    function updateDuration(uint256 _duration) public {\n        Purpose storage purpose = purposeToUpdate(msg.sender);\n        purpose.duration = _duration;\n    }\n\n    function updatePurpose(uint256 _sustainabilityTarget, uint256 _duration)\n        public\n    // address _want\n    {\n        Purpose storage purpose = purposeToUpdate(msg.sender);\n        purpose.sustainabilityTarget = _sustainabilityTarget;\n        purpose.duration = _duration;\n        purpose.want = DAI; //IERC20(_want);\n    }\n\n    function createPurpose(\n        uint256 _sustainabilityTarget,\n        uint256 _duration,\n        uint256 _start\n    ) public {\n        require(\n            !currentPurposes[msg.sender].exists,\n            \"You already have a purpose.\"\n        );\n        Purpose storage purpose = currentPurposes[msg.sender];\n        purpose.start = _start;\n        purpose.id = numPurposes;\n        purpose.sustainabilityTarget = _sustainabilityTarget;\n        purpose.duration = _duration;\n        purpose.want = DAI;\n\n        emit PurposeCreated(\n            numPurposes,\n            msg.sender,\n            _sustainabilityTarget,\n            _duration,\n            DAI\n        );\n\n        numPurposes.add(1);\n    }\n\n    // Contribute a specified amount to the sustainability of the specified Steward's active Purpose.\n    // If the amount results in surplus, redistribute the surplus proportionally to sustainers of the Purpose.\n    function sustain(address _steward, uint256 _amount) public {\n        require(_amount > 0, \"The sustainment amount should be positive.\");\n\n        // The function operates on the state of the current Purpose belonging to the specified steward.\n        Purpose storage currentPurpose = currentPurposes[_steward];\n\n        require(\n            currentPurpose.exists,\n            \"This account isn't currently stewarding a purpose.\"\n        );\n\n        // If the current time is greater than the current Purpose's endTime, make the next Purpose the current Purpose if one exists.\n        if (now > currentPurpose.start + (currentPurpose.duration * 1 days)) {\n            Purpose storage nextPurpose = nextPurposes[_steward];\n            currentPurpose = nextPurpose;\n            sustainActivePurpose(_steward, _amount);\n            return;\n        }\n\n        // The amount that should be reserved for the steward to withdraw.\n        uint256 amountToSendToSteward = currentPurpose.sustainabilityTarget.sub(\n            currentPurpose.sustainment\n        ) > _amount\n            ? _amount\n            : currentPurpose.sustainabilityTarget.sub(\n                currentPurpose.sustainment\n            );\n\n        // Save if the message sender is contributing to this Purpose for the first time.\n        bool isNewSustainer = currentPurpose.sustainments[msg.sender] == 0;\n        // Save if the purpose is sustainable before operating on its state.\n        bool wasSustainable = currentPurpose.sustainment >=\n            currentPurpose.sustainabilityTarget;\n\n        // Move the full sustainment amount to this address.\n        DAI.transferFrom(msg.sender, address(this), _amount);\n\n        // Increment the funds that the steward has access to withdraw.\n        sustainabilityPool[_steward] = sustainabilityPool[_steward].add(\n            amountToSendToSteward\n        );\n\n        // Increment the sustainments to the Purpose made by the message sender.\n        currentPurpose.sustainments[msg.sender] = currentPurpose\n            .sustainments[msg.sender]\n            .add(_amount);\n        // Increment the total amount contributed to the sustainment of the Purpose.\n        currentPurpose.sustainment = currentPurpose.sustainment.add(_amount);\n        // Add the message sender as a sustainer of the Purpose if this is the first sustainment it's making to it.\n        if (isNewSustainer) {\n            currentPurpose.sustainers.push(msg.sender);\n        }\n\n        // Save the amount to distribute before changing the state.\n        uint256 surplus = currentPurpose.sustainment <=\n            currentPurpose.sustainabilityTarget\n            ? 0\n            : currentPurpose.sustainment.sub(\n                currentPurpose.sustainabilityTarget\n            );\n\n        // //TODO market buy native token.\n        // uint amountToDistribute = _amount.sub(calculateFee(_amount, 1000);\n\n        // Redistribute any leftover amount.\n        if (surplus > 0) {\n            redistribute(currentPurpose, surplus);\n        }\n\n        // Emit events.\n        emit PurposeSustained(currentPurpose.id, msg.sender, _amount);\n        if (\n            !wasSustainable &&\n            currentPurpose.sustainment >= currentPurpose.sustainabilityTarget\n        ) {\n            emit PurposeBecameSustainable(\n                currentPurpose.id,\n                currentPurpose.steward\n            );\n        }\n    }\n\n    // A message sender can withdraw what's been redistributed to it.\n    function withdrawFromSustainersPool(uint256 _amount) public {\n        require(\n            sustainersPool[msg.sender] >= _amount,\n            \"You don't have enough to withdraw this much.\"\n        );\n\n        DAI.safeTransferFrom(address(this), msg.sender, _amount);\n\n        sustainersPool[msg.sender] = sustainersPool[msg.sender].sub(_amount);\n\n        emit Withdraw(msg.sender, Pool.SUSTAINERS, _amount);\n    }\n\n    // A message sender can withdrawl funds that have been used to sustain it's Purposes.\n    function withdrawFromSustainabilityPool(uint256 _amount) public {\n        require(\n            sustainabilityPool[msg.sender] >= _amount,\n            \"You don't have enough to withdraw this much.\"\n        );\n\n        DAI.safeTransferFrom(address(this), msg.sender, _amount);\n\n        sustainabilityPool[msg.sender] = sustainabilityPool[msg.sender].sub(\n            _amount\n        );\n\n        emit Withdraw(msg.sender, Pool.SUSTAINABILITY, _amount);\n    }\n\n    // Contribute a specified amount to the sustainability of a Purpose stewarded by the specified address.\n    // If the amount results in surplus, redistribute the surplus proportionally to sustainers of the Purpose.\n    function sustainActivePurpose(address _steward, uint256 _amount) private {}\n\n    // The sustainability of a Purpose cannot be updated if there have been sustainments made to it.\n    function purposeToUpdate(address _steward)\n        private\n        returns (Purpose storage)\n    {\n        require(\n            currentPurposes[_steward].exists,\n            \"You don't yet have a purpose.\"\n        );\n\n        // If the steward's current Purpose does not yet have sustainments, return it.\n        if (currentPurposes[_steward].sustainment == 0) {\n            return currentPurposes[_steward];\n        }\n\n        // If the steward does not have a Purpose in the next Chapter, make one and return it.\n        if (!nextPurposes[_steward].exists) {\n            Purpose storage purpose = nextPurposes[_steward];\n            purpose.exists = true;\n            return purpose;\n        }\n\n        // Return the steward's next Purpose.\n        return nextPurposes[_steward];\n    }\n\n    function calculateFee(uint256 _amount, uint8 _basisPoints)\n        private\n        pure\n        returns (uint256)\n    {\n        require((_amount.div(10000)).mul(10000) == _amount, \"Amount too small\");\n        return (_amount.mul(_basisPoints)).div(1000);\n    }\n\n    // Proportionally allocate the specified amount to the contributors of the specified Purpose,\n    // meaning each sustainer will receive a portion of the specified amount equivalent to the portion of the total\n    // amount contributed to the sustainment of the Purpose that they are responsible for.\n    function redistribute(Purpose storage _purpose, uint256 _amount) private {\n        assert(_amount > 0);\n\n        // For each sustainer, calculate their share of the sustainment and allocate a proportional share of the amount.\n        for (uint256 i = 0; i < _purpose.sustainers.length; i++) {\n            address sustainer = _purpose.sustainers[i];\n            uint256 amountShare = (\n                _purpose.sustainments[sustainer].mul(_amount)\n            )\n                .div(_purpose.sustainment);\n            //Store the reditribution in the Purpose.\n            _purpose.redistribution[sustainer] = _purpose\n                .redistribution[sustainer]\n                .add(amountShare);\n\n            //Store the redistribution in the sustainers pool.\n            sustainersPool[sustainer] = sustainersPool[sustainer].add(\n                amountShare\n            );\n        }\n    }\n}\n",
  "sourcePath": "/Users/joao/sustainers.money/eth/contracts/Sustainers.sol",
  "compiler": {
    "name": "solc",
    "version": "0.6.2+commit.bacdbe57.Emscripten.clang"
  },
  "schemaVersion": "3.2.5",
  "updatedAt": "2020-10-13T02:19:36.051Z",
  "devdoc": {
    "methods": {}
  },
  "userdoc": {
    "methods": {}
  }
}